{
  "contractName": "CustodianERC721",
  "abi": [
    {
      "inputs": [
        {
          "internalType": "string",
          "name": "name_",
          "type": "string"
        },
        {
          "internalType": "string",
          "name": "symbol_",
          "type": "string"
        }
      ],
      "stateMutability": "nonpayable",
      "type": "constructor"
    },
    {
      "anonymous": false,
      "inputs": [
        {
          "indexed": true,
          "internalType": "address",
          "name": "_collaborator",
          "type": "address"
        }
      ],
      "name": "AddCollaborator",
      "type": "event"
    },
    {
      "anonymous": false,
      "inputs": [
        {
          "indexed": true,
          "internalType": "address",
          "name": "owner",
          "type": "address"
        },
        {
          "indexed": true,
          "internalType": "address",
          "name": "approved",
          "type": "address"
        },
        {
          "indexed": true,
          "internalType": "uint256",
          "name": "tokenId",
          "type": "uint256"
        }
      ],
      "name": "Approval",
      "type": "event"
    },
    {
      "anonymous": false,
      "inputs": [
        {
          "indexed": true,
          "internalType": "address",
          "name": "owner",
          "type": "address"
        },
        {
          "indexed": true,
          "internalType": "address",
          "name": "operator",
          "type": "address"
        },
        {
          "indexed": false,
          "internalType": "bool",
          "name": "approved",
          "type": "bool"
        }
      ],
      "name": "ApprovalForAll",
      "type": "event"
    },
    {
      "anonymous": false,
      "inputs": [
        {
          "indexed": true,
          "internalType": "address",
          "name": "previousOwner",
          "type": "address"
        },
        {
          "indexed": true,
          "internalType": "address",
          "name": "newOwner",
          "type": "address"
        }
      ],
      "name": "OwnershipTransferred",
      "type": "event"
    },
    {
      "anonymous": false,
      "inputs": [
        {
          "indexed": false,
          "internalType": "string",
          "name": "_value",
          "type": "string"
        },
        {
          "indexed": true,
          "internalType": "uint256",
          "name": "_id",
          "type": "uint256"
        }
      ],
      "name": "PermanentURI",
      "type": "event"
    },
    {
      "anonymous": false,
      "inputs": [
        {
          "indexed": true,
          "internalType": "address",
          "name": "_collaborator",
          "type": "address"
        }
      ],
      "name": "RemoveCollaborator",
      "type": "event"
    },
    {
      "anonymous": false,
      "inputs": [
        {
          "indexed": true,
          "internalType": "address",
          "name": "from",
          "type": "address"
        },
        {
          "indexed": true,
          "internalType": "address",
          "name": "to",
          "type": "address"
        },
        {
          "indexed": true,
          "internalType": "uint256",
          "name": "tokenId",
          "type": "uint256"
        }
      ],
      "name": "Transfer",
      "type": "event"
    },
    {
      "inputs": [
        {
          "internalType": "address",
          "name": "to",
          "type": "address"
        },
        {
          "internalType": "uint256",
          "name": "tokenId",
          "type": "uint256"
        }
      ],
      "name": "approve",
      "outputs": [],
      "stateMutability": "nonpayable",
      "type": "function"
    },
    {
      "inputs": [
        {
          "internalType": "address",
          "name": "owner",
          "type": "address"
        }
      ],
      "name": "balanceOf",
      "outputs": [
        {
          "internalType": "uint256",
          "name": "",
          "type": "uint256"
        }
      ],
      "stateMutability": "view",
      "type": "function",
      "constant": true
    },
    {
      "inputs": [
        {
          "internalType": "uint256",
          "name": "tokenId",
          "type": "uint256"
        }
      ],
      "name": "getApproved",
      "outputs": [
        {
          "internalType": "address",
          "name": "",
          "type": "address"
        }
      ],
      "stateMutability": "view",
      "type": "function",
      "constant": true
    },
    {
      "inputs": [
        {
          "internalType": "address",
          "name": "owner",
          "type": "address"
        },
        {
          "internalType": "address",
          "name": "operator",
          "type": "address"
        }
      ],
      "name": "isApprovedForAll",
      "outputs": [
        {
          "internalType": "bool",
          "name": "",
          "type": "bool"
        }
      ],
      "stateMutability": "view",
      "type": "function",
      "constant": true
    },
    {
      "inputs": [],
      "name": "name",
      "outputs": [
        {
          "internalType": "string",
          "name": "",
          "type": "string"
        }
      ],
      "stateMutability": "view",
      "type": "function",
      "constant": true
    },
    {
      "inputs": [],
      "name": "owner",
      "outputs": [
        {
          "internalType": "address",
          "name": "",
          "type": "address"
        }
      ],
      "stateMutability": "view",
      "type": "function",
      "constant": true
    },
    {
      "inputs": [
        {
          "internalType": "uint256",
          "name": "tokenId",
          "type": "uint256"
        }
      ],
      "name": "ownerOf",
      "outputs": [
        {
          "internalType": "address",
          "name": "",
          "type": "address"
        }
      ],
      "stateMutability": "view",
      "type": "function",
      "constant": true
    },
    {
      "inputs": [],
      "name": "renounceOwnership",
      "outputs": [],
      "stateMutability": "nonpayable",
      "type": "function"
    },
    {
      "inputs": [
        {
          "internalType": "address",
          "name": "from",
          "type": "address"
        },
        {
          "internalType": "address",
          "name": "to",
          "type": "address"
        },
        {
          "internalType": "uint256",
          "name": "tokenId",
          "type": "uint256"
        }
      ],
      "name": "safeTransferFrom",
      "outputs": [],
      "stateMutability": "nonpayable",
      "type": "function"
    },
    {
      "inputs": [
        {
          "internalType": "address",
          "name": "from",
          "type": "address"
        },
        {
          "internalType": "address",
          "name": "to",
          "type": "address"
        },
        {
          "internalType": "uint256",
          "name": "tokenId",
          "type": "uint256"
        },
        {
          "internalType": "bytes",
          "name": "_data",
          "type": "bytes"
        }
      ],
      "name": "safeTransferFrom",
      "outputs": [],
      "stateMutability": "nonpayable",
      "type": "function"
    },
    {
      "inputs": [
        {
          "internalType": "address",
          "name": "operator",
          "type": "address"
        },
        {
          "internalType": "bool",
          "name": "approved",
          "type": "bool"
        }
      ],
      "name": "setApprovalForAll",
      "outputs": [],
      "stateMutability": "nonpayable",
      "type": "function"
    },
    {
      "inputs": [
        {
          "internalType": "bytes4",
          "name": "interfaceId",
          "type": "bytes4"
        }
      ],
      "name": "supportsInterface",
      "outputs": [
        {
          "internalType": "bool",
          "name": "",
          "type": "bool"
        }
      ],
      "stateMutability": "view",
      "type": "function",
      "constant": true
    },
    {
      "inputs": [],
      "name": "symbol",
      "outputs": [
        {
          "internalType": "string",
          "name": "",
          "type": "string"
        }
      ],
      "stateMutability": "view",
      "type": "function",
      "constant": true
    },
    {
      "inputs": [
        {
          "internalType": "address",
          "name": "from",
          "type": "address"
        },
        {
          "internalType": "address",
          "name": "to",
          "type": "address"
        },
        {
          "internalType": "uint256",
          "name": "tokenId",
          "type": "uint256"
        }
      ],
      "name": "transferFrom",
      "outputs": [],
      "stateMutability": "nonpayable",
      "type": "function"
    },
    {
      "inputs": [
        {
          "internalType": "address",
          "name": "newOwner",
          "type": "address"
        }
      ],
      "name": "transferOwnership",
      "outputs": [],
      "stateMutability": "nonpayable",
      "type": "function"
    },
    {
      "inputs": [
        {
          "internalType": "address",
          "name": "to",
          "type": "address"
        },
        {
          "internalType": "string",
          "name": "metadata",
          "type": "string"
        }
      ],
      "name": "mint",
      "outputs": [],
      "stateMutability": "nonpayable",
      "type": "function"
    },
    {
      "inputs": [
        {
          "internalType": "address",
          "name": "collaborator_",
          "type": "address"
        }
      ],
      "name": "removeCollaborator",
      "outputs": [],
      "stateMutability": "nonpayable",
      "type": "function"
    },
    {
      "inputs": [
        {
          "internalType": "address",
          "name": "collaborator_",
          "type": "address"
        }
      ],
      "name": "addCollaborator",
      "outputs": [],
      "stateMutability": "nonpayable",
      "type": "function"
    },
    {
      "inputs": [
        {
          "internalType": "uint256",
          "name": "tokenId",
          "type": "uint256"
        }
      ],
      "name": "tokenURI",
      "outputs": [
        {
          "internalType": "string",
          "name": "",
          "type": "string"
        }
      ],
      "stateMutability": "view",
      "type": "function",
      "constant": true
    },
    {
      "inputs": [
        {
          "internalType": "address",
          "name": "collaborator_",
          "type": "address"
        }
      ],
      "name": "collaborator",
      "outputs": [
        {
          "internalType": "bool",
          "name": "",
          "type": "bool"
        }
      ],
      "stateMutability": "view",
      "type": "function",
      "constant": true
    }
  ],
  "bytecode": "0x60806040523480156200001157600080fd5b50604051620036aa380380620036aa8339818101604052810190620000379190620003ca565b81818160009080519060200190620000519291906200017d565b5080600190805190602001906200006a9291906200017d565b5050506200009f6200008a620000af640100000000026401000000009004565b620000b7640100000000026401000000009004565b60016007819055505050620004b4565b600033905090565b6000600660009054906101000a900473ffffffffffffffffffffffffffffffffffffffff16905081600660006101000a81548173ffffffffffffffffffffffffffffffffffffffff021916908373ffffffffffffffffffffffffffffffffffffffff1602179055508173ffffffffffffffffffffffffffffffffffffffff168173ffffffffffffffffffffffffffffffffffffffff167f8be0079c531659141344cd1fd0a4f28419497f9722a3daafe3b4186f6b6457e060405160405180910390a35050565b8280546200018b906200047e565b90600052602060002090601f016020900481019282620001af5760008555620001fb565b82601f10620001ca57805160ff1916838001178555620001fb565b82800160010185558215620001fb579182015b82811115620001fa578251825591602001919060010190620001dd565b5b5090506200020a91906200020e565b5090565b5b80821115620002295760008160009055506001016200020f565b5090565b6000604051905090565b600080fd5b600080fd5b600080fd5b600080fd5b6000601f19601f8301169050919050565b7f4e487b7100000000000000000000000000000000000000000000000000000000600052604160045260246000fd5b62000296826200024b565b810181811067ffffffffffffffff82111715620002b857620002b76200025c565b5b80604052505050565b6000620002cd6200022d565b9050620002db82826200028b565b919050565b600067ffffffffffffffff821115620002fe57620002fd6200025c565b5b62000309826200024b565b9050602081019050919050565b60005b838110156200033657808201518184015260208101905062000319565b8381111562000346576000848401525b50505050565b6000620003636200035d84620002e0565b620002c1565b90508281526020810184848401111562000382576200038162000246565b5b6200038f84828562000316565b509392505050565b600082601f830112620003af57620003ae62000241565b5b8151620003c18482602086016200034c565b91505092915050565b60008060408385031215620003e457620003e362000237565b5b600083015167ffffffffffffffff8111156200040557620004046200023c565b5b620004138582860162000397565b925050602083015167ffffffffffffffff8111156200043757620004366200023c565b5b620004458582860162000397565b9150509250929050565b7f4e487b7100000000000000000000000000000000000000000000000000000000600052602260045260246000fd5b600060028204905060018216806200049757607f821691505b60208210811415620004ae57620004ad6200044f565b5b50919050565b6131e680620004c46000396000f3fe608060405234801561001057600080fd5b5060043610610149576000357c0100000000000000000000000000000000000000000000000000000000900480638da5cb5b116100ca578063ccdbe6a61161008e578063ccdbe6a61461034a578063d0def52114610366578063e985e9c514610382578063ef0ecea6146103b2578063f2fde38b146103e257610149565b80638da5cb5b146102a657806395d89b41146102c4578063a22cb465146102e2578063b88d4fde146102fe578063c87b56dd1461031a57610149565b80633109c19d116101115780633109c19d1461020457806342842e0e146102205780636352211e1461023c57806370a082311461026c578063715018a61461029c57610149565b806301ffc9a71461014e57806306fdde031461017e578063081812fc1461019c578063095ea7b3146101cc57806323b872dd146101e8575b600080fd5b61016860048036038101906101639190611f27565b6103fe565b6040516101759190611f6f565b60405180910390f35b6101866104e0565b6040516101939190612023565b60405180910390f35b6101b660048036038101906101b1919061207b565b610572565b6040516101c391906120e9565b60405180910390f35b6101e660048036038101906101e19190612130565b6105f7565b005b61020260048036038101906101fd9190612170565b61070f565b005b61021e600480360381019061021991906121c3565b61076f565b005b61023a60048036038101906102359190612170565b610915565b005b6102566004803603810190610251919061207b565b610935565b60405161026391906120e9565b60405180910390f35b610286600480360381019061028191906121c3565b6109e7565b60405161029391906121ff565b60405180910390f35b6102a4610a9f565b005b6102ae610b27565b6040516102bb91906120e9565b60405180910390f35b6102cc610b51565b6040516102d99190612023565b60405180910390f35b6102fc60048036038101906102f79190612246565b610be3565b005b610318600480360381019061031391906123bb565b610d64565b005b610334600480360381019061032f919061207b565b610dc6565b6040516103419190612023565b60405180910390f35b610364600480360381019061035f91906121c3565b610eb3565b005b610380600480360381019061037b91906124df565b61105a565b005b61039c6004803603810190610397919061253b565b611215565b6040516103a99190611f6f565b60405180910390f35b6103cc60048036038101906103c791906121c3565b6112a9565b6040516103d99190611f6f565b60405180910390f35b6103fc60048036038101906103f791906121c3565b6112ff565b005b60007f80ac58cd000000000000000000000000000000000000000000000000000000007bffffffffffffffffffffffffffffffffffffffffffffffffffffffff1916827bffffffffffffffffffffffffffffffffffffffffffffffffffffffff191614806104c957507f5b5e139f000000000000000000000000000000000000000000000000000000007bffffffffffffffffffffffffffffffffffffffffffffffffffffffff1916827bffffffffffffffffffffffffffffffffffffffffffffffffffffffff1916145b806104d957506104d8826113f7565b5b9050919050565b6060600080546104ef906125aa565b80601f016020809104026020016040519081016040528092919081815260200182805461051b906125aa565b80156105685780601f1061053d57610100808354040283529160200191610568565b820191906000526020600020905b81548152906001019060200180831161054b57829003601f168201915b5050505050905090565b600061057d82611461565b6105bc576040517f08c379a00000000000000000000000000000000000000000000000000000000081526004016105b39061264e565b60405180910390fd5b6004600083815260200190815260200160002060009054906101000a900473ffffffffffffffffffffffffffffffffffffffff169050919050565b600061060282610935565b90508073ffffffffffffffffffffffffffffffffffffffff168373ffffffffffffffffffffffffffffffffffffffff161415610673576040517f08c379a000000000000000000000000000000000000000000000000000000000815260040161066a906126e0565b60405180910390fd5b8073ffffffffffffffffffffffffffffffffffffffff166106926114cd565b73ffffffffffffffffffffffffffffffffffffffff1614806106c157506106c0816106bb6114cd565b611215565b5b610700576040517f08c379a00000000000000000000000000000000000000000000000000000000081526004016106f790612772565b60405180910390fd5b61070a83836114d5565b505050565b61072061071a6114cd565b8261158e565b61075f576040517f08c379a000000000000000000000000000000000000000000000000000000000815260040161075690612804565b60405180910390fd5b61076a83838361166c565b505050565b6107776114cd565b73ffffffffffffffffffffffffffffffffffffffff16610795610b27565b73ffffffffffffffffffffffffffffffffffffffff16146107eb576040517f08c379a00000000000000000000000000000000000000000000000000000000081526004016107e290612870565b60405180910390fd5b600960008273ffffffffffffffffffffffffffffffffffffffff1673ffffffffffffffffffffffffffffffffffffffff16815260200190815260200160002060009054906101000a900460ff16610877576040517f08c379a000000000000000000000000000000000000000000000000000000000815260040161086e906128dc565b60405180910390fd5b6000600960008373ffffffffffffffffffffffffffffffffffffffff1673ffffffffffffffffffffffffffffffffffffffff16815260200190815260200160002060006101000a81548160ff0219169083151502179055508073ffffffffffffffffffffffffffffffffffffffff167fbc80d602ab43d5a45e0fdbc2b782d70f0a68b97e48526b853885f897d8e04a0d60405160405180910390a250565b61093083838360405180602001604052806000815250610d64565b505050565b6000806002600084815260200190815260200160002060009054906101000a900473ffffffffffffffffffffffffffffffffffffffff169050600073ffffffffffffffffffffffffffffffffffffffff168173ffffffffffffffffffffffffffffffffffffffff1614156109de576040517f08c379a00000000000000000000000000000000000000000000000000000000081526004016109d59061296e565b60405180910390fd5b80915050919050565b60008073ffffffffffffffffffffffffffffffffffffffff168273ffffffffffffffffffffffffffffffffffffffff161415610a58576040517f08c379a0000000000000000000000000000000000000000000000000000000008152600401610a4f90612a00565b60405180910390fd5b600360008373ffffffffffffffffffffffffffffffffffffffff1673ffffffffffffffffffffffffffffffffffffffff168152602001908152602001600020549050919050565b610aa76114cd565b73ffffffffffffffffffffffffffffffffffffffff16610ac5610b27565b73ffffffffffffffffffffffffffffffffffffffff1614610b1b576040517f08c379a0000000000000000000000000000000000000000000000000000000008152600401610b1290612870565b60405180910390fd5b610b2560006118c8565b565b6000600660009054906101000a900473ffffffffffffffffffffffffffffffffffffffff16905090565b606060018054610b60906125aa565b80601f0160208091040260200160405190810160405280929190818152602001828054610b8c906125aa565b8015610bd95780601f10610bae57610100808354040283529160200191610bd9565b820191906000526020600020905b815481529060010190602001808311610bbc57829003601f168201915b5050505050905090565b610beb6114cd565b73ffffffffffffffffffffffffffffffffffffffff168273ffffffffffffffffffffffffffffffffffffffff161415610c59576040517f08c379a0000000000000000000000000000000000000000000000000000000008152600401610c5090612a6c565b60405180910390fd5b8060056000610c666114cd565b73ffffffffffffffffffffffffffffffffffffffff1673ffffffffffffffffffffffffffffffffffffffff16815260200190815260200160002060008473ffffffffffffffffffffffffffffffffffffffff1673ffffffffffffffffffffffffffffffffffffffff16815260200190815260200160002060006101000a81548160ff0219169083151502179055508173ffffffffffffffffffffffffffffffffffffffff16610d136114cd565b73ffffffffffffffffffffffffffffffffffffffff167f17307eab39ab6107e8899845ad3d59bd9653f200f220920489ca2b5937696c3183604051610d589190611f6f565b60405180910390a35050565b610d75610d6f6114cd565b8361158e565b610db4576040517f08c379a0000000000000000000000000000000000000000000000000000000008152600401610dab90612804565b60405180910390fd5b610dc08484848461198e565b50505050565b6060610dd182611461565b610e10576040517f08c379a0000000000000000000000000000000000000000000000000000000008152600401610e0790612afe565b60405180910390fd5b600860008381526020019081526020016000208054610e2e906125aa565b80601f0160208091040260200160405190810160405280929190818152602001828054610e5a906125aa565b8015610ea75780601f10610e7c57610100808354040283529160200191610ea7565b820191906000526020600020905b815481529060010190602001808311610e8a57829003601f168201915b50505050509050919050565b610ebb6114cd565b73ffffffffffffffffffffffffffffffffffffffff16610ed9610b27565b73ffffffffffffffffffffffffffffffffffffffff1614610f2f576040517f08c379a0000000000000000000000000000000000000000000000000000000008152600401610f2690612870565b60405180910390fd5b600960008273ffffffffffffffffffffffffffffffffffffffff1673ffffffffffffffffffffffffffffffffffffffff16815260200190815260200160002060009054906101000a900460ff1615610fbc576040517f08c379a0000000000000000000000000000000000000000000000000000000008152600401610fb390612b6a565b60405180910390fd5b6001600960008373ffffffffffffffffffffffffffffffffffffffff1673ffffffffffffffffffffffffffffffffffffffff16815260200190815260200160002060006101000a81548160ff0219169083151502179055508073ffffffffffffffffffffffffffffffffffffffff167f2c5b80c99243a299dc0e18bf708c783501be4c4556334fef7b0c9bf2aee9ee9160405160405180910390a250565b600960006110666114cd565b73ffffffffffffffffffffffffffffffffffffffff1673ffffffffffffffffffffffffffffffffffffffff16815260200190815260200160002060009054906101000a900460ff16806110f257506110bc6114cd565b73ffffffffffffffffffffffffffffffffffffffff166110da610b27565b73ffffffffffffffffffffffffffffffffffffffff16145b611131576040517f08c379a000000000000000000000000000000000000000000000000000000000815260040161112890612bd6565b60405180910390fd5b60026007541415611177576040517f08c379a000000000000000000000000000000000000000000000000000000000815260040161116e90612c42565b60405180910390fd5b600260078190555061118b82600a546119ea565b8060086000600a54815260200190815260200160002090805190602001906111b4929190611e18565b50600a547fa109ba539900bf1b633f956d63c96fc89b814c7287f7aa50a9216d0b55657207826040516111e79190612023565b60405180910390a26001600a60008282546112029190612c91565b9250508190555060016007819055505050565b6000600560008473ffffffffffffffffffffffffffffffffffffffff1673ffffffffffffffffffffffffffffffffffffffff16815260200190815260200160002060008373ffffffffffffffffffffffffffffffffffffffff1673ffffffffffffffffffffffffffffffffffffffff16815260200190815260200160002060009054906101000a900460ff16905092915050565b6000600960008373ffffffffffffffffffffffffffffffffffffffff1673ffffffffffffffffffffffffffffffffffffffff16815260200190815260200160002060009054906101000a900460ff169050919050565b6113076114cd565b73ffffffffffffffffffffffffffffffffffffffff16611325610b27565b73ffffffffffffffffffffffffffffffffffffffff161461137b576040517f08c379a000000000000000000000000000000000000000000000000000000000815260040161137290612870565b60405180910390fd5b600073ffffffffffffffffffffffffffffffffffffffff168173ffffffffffffffffffffffffffffffffffffffff1614156113eb576040517f08c379a00000000000000000000000000000000000000000000000000000000081526004016113e290612d59565b60405180910390fd5b6113f4816118c8565b50565b60007f01ffc9a7000000000000000000000000000000000000000000000000000000007bffffffffffffffffffffffffffffffffffffffffffffffffffffffff1916827bffffffffffffffffffffffffffffffffffffffffffffffffffffffff1916149050919050565b60008073ffffffffffffffffffffffffffffffffffffffff166002600084815260200190815260200160002060009054906101000a900473ffffffffffffffffffffffffffffffffffffffff1673ffffffffffffffffffffffffffffffffffffffff1614159050919050565b600033905090565b816004600083815260200190815260200160002060006101000a81548173ffffffffffffffffffffffffffffffffffffffff021916908373ffffffffffffffffffffffffffffffffffffffff160217905550808273ffffffffffffffffffffffffffffffffffffffff1661154883610935565b73ffffffffffffffffffffffffffffffffffffffff167f8c5be1e5ebec7d5bd14f71427d1e84f3dd0314c0f7b2291e5b200ac8c7c3b92560405160405180910390a45050565b600061159982611461565b6115d8576040517f08c379a00000000000000000000000000000000000000000000000000000000081526004016115cf90612deb565b60405180910390fd5b60006115e383610935565b90508073ffffffffffffffffffffffffffffffffffffffff168473ffffffffffffffffffffffffffffffffffffffff16148061165257508373ffffffffffffffffffffffffffffffffffffffff1661163a84610572565b73ffffffffffffffffffffffffffffffffffffffff16145b8061166357506116628185611215565b5b91505092915050565b8273ffffffffffffffffffffffffffffffffffffffff1661168c82610935565b73ffffffffffffffffffffffffffffffffffffffff16146116e2576040517f08c379a00000000000000000000000000000000000000000000000000000000081526004016116d990612e7d565b60405180910390fd5b600073ffffffffffffffffffffffffffffffffffffffff168273ffffffffffffffffffffffffffffffffffffffff161415611752576040517f08c379a000000000000000000000000000000000000000000000000000000000815260040161174990612f0f565b60405180910390fd5b61175d838383611a08565b6117686000826114d5565b6001600360008573ffffffffffffffffffffffffffffffffffffffff1673ffffffffffffffffffffffffffffffffffffffff16815260200190815260200160002060008282546117b89190612f2f565b925050819055506001600360008473ffffffffffffffffffffffffffffffffffffffff1673ffffffffffffffffffffffffffffffffffffffff168152602001908152602001600020600082825461180f9190612c91565b92505081905550816002600083815260200190815260200160002060006101000a81548173ffffffffffffffffffffffffffffffffffffffff021916908373ffffffffffffffffffffffffffffffffffffffff160217905550808273ffffffffffffffffffffffffffffffffffffffff168473ffffffffffffffffffffffffffffffffffffffff167fddf252ad1be2c89b69c2b068fc378daa952ba7f163c4a11628f55a4df523b3ef60405160405180910390a4505050565b6000600660009054906101000a900473ffffffffffffffffffffffffffffffffffffffff16905081600660006101000a81548173ffffffffffffffffffffffffffffffffffffffff021916908373ffffffffffffffffffffffffffffffffffffffff1602179055508173ffffffffffffffffffffffffffffffffffffffff168173ffffffffffffffffffffffffffffffffffffffff167f8be0079c531659141344cd1fd0a4f28419497f9722a3daafe3b4186f6b6457e060405160405180910390a35050565b61199984848461166c565b6119a584848484611a0d565b6119e4576040517f08c379a00000000000000000000000000000000000000000000000000000000081526004016119db90612fd5565b60405180910390fd5b50505050565b611a04828260405180602001604052806000815250611bdc565b5050565b505050565b6000611a2e8473ffffffffffffffffffffffffffffffffffffffff16611c37565b15611bcf578373ffffffffffffffffffffffffffffffffffffffff1663150b7a02611a576114cd565b8786866040518563ffffffff167c0100000000000000000000000000000000000000000000000000000000028152600401611a95949392919061304a565b602060405180830381600087803b158015611aaf57600080fd5b505af1925050508015611ae057506040513d601f19601f82011682018060405250810190611add91906130ab565b60015b611b63573d8060008114611b10576040519150601f19603f3d011682016040523d82523d6000602084013e611b15565b606091505b50600081511415611b5b576040517f08c379a0000000000000000000000000000000000000000000000000000000008152600401611b5290612fd5565b60405180910390fd5b805181602001fd5b63150b7a027c0100000000000000000000000000000000000000000000000000000000027bffffffffffffffffffffffffffffffffffffffffffffffffffffffff1916817bffffffffffffffffffffffffffffffffffffffffffffffffffffffff191614915050611bd4565b600190505b949350505050565b611be68383611c4a565b611bf36000848484611a0d565b611c32576040517f08c379a0000000000000000000000000000000000000000000000000000000008152600401611c2990612fd5565b60405180910390fd5b505050565b600080823b905060008111915050919050565b600073ffffffffffffffffffffffffffffffffffffffff168273ffffffffffffffffffffffffffffffffffffffff161415611cba576040517f08c379a0000000000000000000000000000000000000000000000000000000008152600401611cb190613124565b60405180910390fd5b611cc381611461565b15611d03576040517f08c379a0000000000000000000000000000000000000000000000000000000008152600401611cfa90613190565b60405180910390fd5b611d0f60008383611a08565b6001600360008473ffffffffffffffffffffffffffffffffffffffff1673ffffffffffffffffffffffffffffffffffffffff1681526020019081526020016000206000828254611d5f9190612c91565b92505081905550816002600083815260200190815260200160002060006101000a81548173ffffffffffffffffffffffffffffffffffffffff021916908373ffffffffffffffffffffffffffffffffffffffff160217905550808273ffffffffffffffffffffffffffffffffffffffff16600073ffffffffffffffffffffffffffffffffffffffff167fddf252ad1be2c89b69c2b068fc378daa952ba7f163c4a11628f55a4df523b3ef60405160405180910390a45050565b828054611e24906125aa565b90600052602060002090601f016020900481019282611e465760008555611e8d565b82601f10611e5f57805160ff1916838001178555611e8d565b82800160010185558215611e8d579182015b82811115611e8c578251825591602001919060010190611e71565b5b509050611e9a9190611e9e565b5090565b5b80821115611eb7576000816000905550600101611e9f565b5090565b6000604051905090565b600080fd5b600080fd5b60007fffffffff0000000000000000000000000000000000000000000000000000000082169050919050565b611f0481611ecf565b8114611f0f57600080fd5b50565b600081359050611f2181611efb565b92915050565b600060208284031215611f3d57611f3c611ec5565b5b6000611f4b84828501611f12565b91505092915050565b60008115159050919050565b611f6981611f54565b82525050565b6000602082019050611f846000830184611f60565b92915050565b600081519050919050565b600082825260208201905092915050565b60005b83811015611fc4578082015181840152602081019050611fa9565b83811115611fd3576000848401525b50505050565b6000601f19601f8301169050919050565b6000611ff582611f8a565b611fff8185611f95565b935061200f818560208601611fa6565b61201881611fd9565b840191505092915050565b6000602082019050818103600083015261203d8184611fea565b905092915050565b6000819050919050565b61205881612045565b811461206357600080fd5b50565b6000813590506120758161204f565b92915050565b60006020828403121561209157612090611ec5565b5b600061209f84828501612066565b91505092915050565b600073ffffffffffffffffffffffffffffffffffffffff82169050919050565b60006120d3826120a8565b9050919050565b6120e3816120c8565b82525050565b60006020820190506120fe60008301846120da565b92915050565b61210d816120c8565b811461211857600080fd5b50565b60008135905061212a81612104565b92915050565b6000806040838503121561214757612146611ec5565b5b60006121558582860161211b565b925050602061216685828601612066565b9150509250929050565b60008060006060848603121561218957612188611ec5565b5b60006121978682870161211b565b93505060206121a88682870161211b565b92505060406121b986828701612066565b9150509250925092565b6000602082840312156121d9576121d8611ec5565b5b60006121e78482850161211b565b91505092915050565b6121f981612045565b82525050565b600060208201905061221460008301846121f0565b92915050565b61222381611f54565b811461222e57600080fd5b50565b6000813590506122408161221a565b92915050565b6000806040838503121561225d5761225c611ec5565b5b600061226b8582860161211b565b925050602061227c85828601612231565b9150509250929050565b600080fd5b600080fd5b7f4e487b7100000000000000000000000000000000000000000000000000000000600052604160045260246000fd5b6122c882611fd9565b810181811067ffffffffffffffff821117156122e7576122e6612290565b5b80604052505050565b60006122fa611ebb565b905061230682826122bf565b919050565b600067ffffffffffffffff82111561232657612325612290565b5b61232f82611fd9565b9050602081019050919050565b82818337600083830152505050565b600061235e6123598461230b565b6122f0565b90508281526020810184848401111561237a5761237961228b565b5b61238584828561233c565b509392505050565b600082601f8301126123a2576123a1612286565b5b81356123b284826020860161234b565b91505092915050565b600080600080608085870312156123d5576123d4611ec5565b5b60006123e38782880161211b565b94505060206123f48782880161211b565b935050604061240587828801612066565b925050606085013567ffffffffffffffff81111561242657612425611eca565b5b6124328782880161238d565b91505092959194509250565b600067ffffffffffffffff82111561245957612458612290565b5b61246282611fd9565b9050602081019050919050565b600061248261247d8461243e565b6122f0565b90508281526020810184848401111561249e5761249d61228b565b5b6124a984828561233c565b509392505050565b600082601f8301126124c6576124c5612286565b5b81356124d684826020860161246f565b91505092915050565b600080604083850312156124f6576124f5611ec5565b5b60006125048582860161211b565b925050602083013567ffffffffffffffff81111561252557612524611eca565b5b612531858286016124b1565b9150509250929050565b6000806040838503121561255257612551611ec5565b5b60006125608582860161211b565b92505060206125718582860161211b565b9150509250929050565b7f4e487b7100000000000000000000000000000000000000000000000000000000600052602260045260246000fd5b600060028204905060018216806125c257607f821691505b602082108114156125d6576125d561257b565b5b50919050565b7f4552433732313a20617070726f76656420717565727920666f72206e6f6e657860008201527f697374656e7420746f6b656e0000000000000000000000000000000000000000602082015250565b6000612638602c83611f95565b9150612643826125dc565b604082019050919050565b600060208201905081810360008301526126678161262b565b9050919050565b7f4552433732313a20617070726f76616c20746f2063757272656e74206f776e6560008201527f7200000000000000000000000000000000000000000000000000000000000000602082015250565b60006126ca602183611f95565b91506126d58261266e565b604082019050919050565b600060208201905081810360008301526126f9816126bd565b9050919050565b7f4552433732313a20617070726f76652063616c6c6572206973206e6f74206f7760008201527f6e6572206e6f7220617070726f76656420666f7220616c6c0000000000000000602082015250565b600061275c603883611f95565b915061276782612700565b604082019050919050565b6000602082019050818103600083015261278b8161274f565b9050919050565b7f4552433732313a207472616e736665722063616c6c6572206973206e6f74206f60008201527f776e6572206e6f7220617070726f766564000000000000000000000000000000602082015250565b60006127ee603183611f95565b91506127f982612792565b604082019050919050565b6000602082019050818103600083015261281d816127e1565b9050919050565b7f4f776e61626c653a2063616c6c6572206973206e6f7420746865206f776e6572600082015250565b600061285a602083611f95565b915061286582612824565b602082019050919050565b600060208201905081810360008301526128898161284d565b9050919050565b7f6e6f74206120636f6c6c61626f7261746f720000000000000000000000000000600082015250565b60006128c6601283611f95565b91506128d182612890565b602082019050919050565b600060208201905081810360008301526128f5816128b9565b9050919050565b7f4552433732313a206f776e657220717565727920666f72206e6f6e657869737460008201527f656e7420746f6b656e0000000000000000000000000000000000000000000000602082015250565b6000612958602983611f95565b9150612963826128fc565b604082019050919050565b600060208201905081810360008301526129878161294b565b9050919050565b7f4552433732313a2062616c616e636520717565727920666f7220746865207a6560008201527f726f206164647265737300000000000000000000000000000000000000000000602082015250565b60006129ea602a83611f95565b91506129f58261298e565b604082019050919050565b60006020820190508181036000830152612a19816129dd565b9050919050565b7f4552433732313a20617070726f766520746f2063616c6c657200000000000000600082015250565b6000612a56601983611f95565b9150612a6182612a20565b602082019050919050565b60006020820190508181036000830152612a8581612a49565b9050919050565b7f4552433732314d657461646174613a2055524920717565727920666f72206e6f60008201527f6e6578697374656e7420746f6b656e0000000000000000000000000000000000602082015250565b6000612ae8602f83611f95565b9150612af382612a8c565b604082019050919050565b60006020820190508181036000830152612b1781612adb565b9050919050565b7f616c726561647920636f6c6c61626f7261746f72000000000000000000000000600082015250565b6000612b54601483611f95565b9150612b5f82612b1e565b602082019050919050565b60006020820190508181036000830152612b8381612b47565b9050919050565b7f6f6e6c79206f776e6572206f7220636f6c6c61626f7261746f72000000000000600082015250565b6000612bc0601a83611f95565b9150612bcb82612b8a565b602082019050919050565b60006020820190508181036000830152612bef81612bb3565b9050919050565b7f5265656e7472616e637947756172643a207265656e7472616e742063616c6c00600082015250565b6000612c2c601f83611f95565b9150612c3782612bf6565b602082019050919050565b60006020820190508181036000830152612c5b81612c1f565b9050919050565b7f4e487b7100000000000000000000000000000000000000000000000000000000600052601160045260246000fd5b6000612c9c82612045565b9150612ca783612045565b9250827fffffffffffffffffffffffffffffffffffffffffffffffffffffffffffffffff03821115612cdc57612cdb612c62565b5b828201905092915050565b7f4f776e61626c653a206e6577206f776e657220697320746865207a65726f206160008201527f6464726573730000000000000000000000000000000000000000000000000000602082015250565b6000612d43602683611f95565b9150612d4e82612ce7565b604082019050919050565b60006020820190508181036000830152612d7281612d36565b9050919050565b7f4552433732313a206f70657261746f7220717565727920666f72206e6f6e657860008201527f697374656e7420746f6b656e0000000000000000000000000000000000000000602082015250565b6000612dd5602c83611f95565b9150612de082612d79565b604082019050919050565b60006020820190508181036000830152612e0481612dc8565b9050919050565b7f4552433732313a207472616e73666572206f6620746f6b656e2074686174206960008201527f73206e6f74206f776e0000000000000000000000000000000000000000000000602082015250565b6000612e67602983611f95565b9150612e7282612e0b565b604082019050919050565b60006020820190508181036000830152612e9681612e5a565b9050919050565b7f4552433732313a207472616e7366657220746f20746865207a65726f2061646460008201527f7265737300000000000000000000000000000000000000000000000000000000602082015250565b6000612ef9602483611f95565b9150612f0482612e9d565b604082019050919050565b60006020820190508181036000830152612f2881612eec565b9050919050565b6000612f3a82612045565b9150612f4583612045565b925082821015612f5857612f57612c62565b5b828203905092915050565b7f4552433732313a207472616e7366657220746f206e6f6e20455243373231526560008201527f63656976657220696d706c656d656e7465720000000000000000000000000000602082015250565b6000612fbf603283611f95565b9150612fca82612f63565b604082019050919050565b60006020820190508181036000830152612fee81612fb2565b9050919050565b600081519050919050565b600082825260208201905092915050565b600061301c82612ff5565b6130268185613000565b9350613036818560208601611fa6565b61303f81611fd9565b840191505092915050565b600060808201905061305f60008301876120da565b61306c60208301866120da565b61307960408301856121f0565b818103606083015261308b8184613011565b905095945050505050565b6000815190506130a581611efb565b92915050565b6000602082840312156130c1576130c0611ec5565b5b60006130cf84828501613096565b91505092915050565b7f4552433732313a206d696e7420746f20746865207a65726f2061646472657373600082015250565b600061310e602083611f95565b9150613119826130d8565b602082019050919050565b6000602082019050818103600083015261313d81613101565b9050919050565b7f4552433732313a20746f6b656e20616c7265616479206d696e74656400000000600082015250565b600061317a601c83611f95565b915061318582613144565b602082019050919050565b600060208201905081810360008301526131a98161316d565b905091905056fea2646970667358221220366805ced92705ca9f6fcfdcce00292a267a0af83b52eaf2c7f8df508d31034264736f6c63430008090033",
  "immutableReferences": {},
  "source": "// SPDX-License-Identifier: MIT\npragma solidity ^0.8.0;\n\nimport \"@openzeppelin/contracts/token/ERC721/ERC721.sol\";\nimport \"@openzeppelin/contracts/access/Ownable.sol\";\nimport \"@openzeppelin/contracts/security/ReentrancyGuard.sol\";\n\ncontract CustodianERC721 is ERC721, Ownable, ReentrancyGuard {\n    /*\n    Signal OpenSea to mark the token metadata as Frozen\n    However, tested and doesn't work on Ethereum chain\n    Reference: https://docs.opensea.io/docs/metadata-standards\n    */\n    event PermanentURI(string _value, uint256 indexed _id);\n\n    /*\n    Log for new collaborator\n    */\n    event AddCollaborator(address indexed _collaborator);\n\n    /*\n    Log for collaborator being removed\n    */\n    event RemoveCollaborator(address indexed _collaborator);\n\n    /*\n    Mapping token id => token metadata URI\n    Example: ipfs://..., https://..., ar://....\n    */\n    mapping(uint256 => string) private _tokenURI;\n\n    /*\n    Mapping to indicate whether the address is a collaborator\n    */\n    mapping(address => bool) private _collaboratorGranted;\n\n    uint256 private tokenCount;\n\n    constructor(string memory name_, string memory symbol_) ERC721(name_, symbol_) {}\n\n    modifier onlyCollaboratorOrOwner() {\n        require(_collaboratorGranted[_msgSender()] || owner() == _msgSender(), \"only owner or collaborator\");\n        _;\n    }\n\n    function mint(address to, string memory metadata) public onlyCollaboratorOrOwner nonReentrant {\n        _safeMint(to, tokenCount);\n        _tokenURI[tokenCount] = metadata;\n        emit PermanentURI(metadata, tokenCount);\n        tokenCount += 1;\n    }\n\n    function removeCollaborator(address collaborator_) external onlyOwner {\n        require(_collaboratorGranted[collaborator_], \"not a collaborator\");\n        _collaboratorGranted[collaborator_] = false;\n        emit RemoveCollaborator(collaborator_);\n    }\n\n    function addCollaborator(address collaborator_) external onlyOwner {\n        require(!_collaboratorGranted[collaborator_], \"already collaborator\");\n        _collaboratorGranted[collaborator_] = true;\n        emit AddCollaborator(collaborator_);\n    }\n\n    function tokenURI(uint256 tokenId) override public view returns (string memory) {\n        require(_exists(tokenId), \"ERC721Metadata: URI query for nonexistent token\");\n        return _tokenURI[tokenId];\n    }\n\n    function collaborator(address collaborator_) external view returns (bool) {\n        return _collaboratorGranted[collaborator_];\n    }\n\n}",
  "sourcePath": "/home/guantian/Projects/learn-solidity/contracts/CustodianERC721/CustodianERC721.sol",
  "compiler": {
    "name": "solc",
    "version": "0.8.9+commit.e5eed63a.Emscripten.clang"
  },
  "schemaVersion": "3.4.3",
  "updatedAt": "2021-11-15T01:53:19.931Z",
  "networkType": "ethereum",
  "devdoc": {
    "kind": "dev",
    "methods": {
      "approve(address,uint256)": {
        "details": "See {IERC721-approve}."
      },
      "balanceOf(address)": {
        "details": "See {IERC721-balanceOf}."
      },
      "getApproved(uint256)": {
        "details": "See {IERC721-getApproved}."
      },
      "isApprovedForAll(address,address)": {
        "details": "See {IERC721-isApprovedForAll}."
      },
      "name()": {
        "details": "See {IERC721Metadata-name}."
      },
      "owner()": {
        "details": "Returns the address of the current owner."
      },
      "ownerOf(uint256)": {
        "details": "See {IERC721-ownerOf}."
      },
      "renounceOwnership()": {
        "details": "Leaves the contract without owner. It will not be possible to call `onlyOwner` functions anymore. Can only be called by the current owner. NOTE: Renouncing ownership will leave the contract without an owner, thereby removing any functionality that is only available to the owner."
      },
      "safeTransferFrom(address,address,uint256)": {
        "details": "See {IERC721-safeTransferFrom}."
      },
      "safeTransferFrom(address,address,uint256,bytes)": {
        "details": "See {IERC721-safeTransferFrom}."
      },
      "setApprovalForAll(address,bool)": {
        "details": "See {IERC721-setApprovalForAll}."
      },
      "supportsInterface(bytes4)": {
        "details": "See {IERC165-supportsInterface}."
      },
      "symbol()": {
        "details": "See {IERC721Metadata-symbol}."
      },
      "tokenURI(uint256)": {
        "details": "See {IERC721Metadata-tokenURI}."
      },
      "transferFrom(address,address,uint256)": {
        "details": "See {IERC721-transferFrom}."
      },
      "transferOwnership(address)": {
        "details": "Transfers ownership of the contract to a new account (`newOwner`). Can only be called by the current owner."
      }
    },
    "version": 1
  },
  "userdoc": {
    "kind": "user",
    "methods": {},
    "version": 1
  }
}