{
  "contractName": "CustodianERC721",
  "abi": [
    {
      "inputs": [
        {
          "internalType": "string",
          "name": "name_",
          "type": "string"
        },
        {
          "internalType": "string",
          "name": "symbol_",
          "type": "string"
        }
      ],
      "stateMutability": "nonpayable",
      "type": "constructor"
    },
    {
      "anonymous": false,
      "inputs": [
        {
          "indexed": true,
          "internalType": "address",
          "name": "_collaborator",
          "type": "address"
        }
      ],
      "name": "AddCollaborator",
      "type": "event"
    },
    {
      "anonymous": false,
      "inputs": [
        {
          "indexed": true,
          "internalType": "address",
          "name": "owner",
          "type": "address"
        },
        {
          "indexed": true,
          "internalType": "address",
          "name": "approved",
          "type": "address"
        },
        {
          "indexed": true,
          "internalType": "uint256",
          "name": "tokenId",
          "type": "uint256"
        }
      ],
      "name": "Approval",
      "type": "event"
    },
    {
      "anonymous": false,
      "inputs": [
        {
          "indexed": true,
          "internalType": "address",
          "name": "owner",
          "type": "address"
        },
        {
          "indexed": true,
          "internalType": "address",
          "name": "operator",
          "type": "address"
        },
        {
          "indexed": false,
          "internalType": "bool",
          "name": "approved",
          "type": "bool"
        }
      ],
      "name": "ApprovalForAll",
      "type": "event"
    },
    {
      "anonymous": false,
      "inputs": [
        {
          "indexed": true,
          "internalType": "address",
          "name": "previousOwner",
          "type": "address"
        },
        {
          "indexed": true,
          "internalType": "address",
          "name": "newOwner",
          "type": "address"
        }
      ],
      "name": "OwnershipTransferred",
      "type": "event"
    },
    {
      "anonymous": false,
      "inputs": [
        {
          "indexed": false,
          "internalType": "string",
          "name": "_value",
          "type": "string"
        },
        {
          "indexed": true,
          "internalType": "uint256",
          "name": "_id",
          "type": "uint256"
        }
      ],
      "name": "PermanentURI",
      "type": "event"
    },
    {
      "anonymous": false,
      "inputs": [
        {
          "indexed": true,
          "internalType": "address",
          "name": "_collaborator",
          "type": "address"
        }
      ],
      "name": "RemoveCollaborator",
      "type": "event"
    },
    {
      "anonymous": false,
      "inputs": [
        {
          "indexed": true,
          "internalType": "address",
          "name": "from",
          "type": "address"
        },
        {
          "indexed": true,
          "internalType": "address",
          "name": "to",
          "type": "address"
        },
        {
          "indexed": true,
          "internalType": "uint256",
          "name": "tokenId",
          "type": "uint256"
        }
      ],
      "name": "Transfer",
      "type": "event"
    },
    {
      "inputs": [
        {
          "internalType": "address",
          "name": "to",
          "type": "address"
        },
        {
          "internalType": "uint256",
          "name": "tokenId",
          "type": "uint256"
        }
      ],
      "name": "approve",
      "outputs": [],
      "stateMutability": "nonpayable",
      "type": "function"
    },
    {
      "inputs": [
        {
          "internalType": "address",
          "name": "owner",
          "type": "address"
        }
      ],
      "name": "balanceOf",
      "outputs": [
        {
          "internalType": "uint256",
          "name": "",
          "type": "uint256"
        }
      ],
      "stateMutability": "view",
      "type": "function"
    },
    {
      "inputs": [
        {
          "internalType": "uint256",
          "name": "tokenId",
          "type": "uint256"
        }
      ],
      "name": "getApproved",
      "outputs": [
        {
          "internalType": "address",
          "name": "",
          "type": "address"
        }
      ],
      "stateMutability": "view",
      "type": "function"
    },
    {
      "inputs": [
        {
          "internalType": "address",
          "name": "owner",
          "type": "address"
        },
        {
          "internalType": "address",
          "name": "operator",
          "type": "address"
        }
      ],
      "name": "isApprovedForAll",
      "outputs": [
        {
          "internalType": "bool",
          "name": "",
          "type": "bool"
        }
      ],
      "stateMutability": "view",
      "type": "function"
    },
    {
      "inputs": [],
      "name": "name",
      "outputs": [
        {
          "internalType": "string",
          "name": "",
          "type": "string"
        }
      ],
      "stateMutability": "view",
      "type": "function"
    },
    {
      "inputs": [],
      "name": "owner",
      "outputs": [
        {
          "internalType": "address",
          "name": "",
          "type": "address"
        }
      ],
      "stateMutability": "view",
      "type": "function"
    },
    {
      "inputs": [
        {
          "internalType": "uint256",
          "name": "tokenId",
          "type": "uint256"
        }
      ],
      "name": "ownerOf",
      "outputs": [
        {
          "internalType": "address",
          "name": "",
          "type": "address"
        }
      ],
      "stateMutability": "view",
      "type": "function"
    },
    {
      "inputs": [],
      "name": "renounceOwnership",
      "outputs": [],
      "stateMutability": "nonpayable",
      "type": "function"
    },
    {
      "inputs": [
        {
          "internalType": "address",
          "name": "from",
          "type": "address"
        },
        {
          "internalType": "address",
          "name": "to",
          "type": "address"
        },
        {
          "internalType": "uint256",
          "name": "tokenId",
          "type": "uint256"
        }
      ],
      "name": "safeTransferFrom",
      "outputs": [],
      "stateMutability": "nonpayable",
      "type": "function"
    },
    {
      "inputs": [
        {
          "internalType": "address",
          "name": "from",
          "type": "address"
        },
        {
          "internalType": "address",
          "name": "to",
          "type": "address"
        },
        {
          "internalType": "uint256",
          "name": "tokenId",
          "type": "uint256"
        },
        {
          "internalType": "bytes",
          "name": "_data",
          "type": "bytes"
        }
      ],
      "name": "safeTransferFrom",
      "outputs": [],
      "stateMutability": "nonpayable",
      "type": "function"
    },
    {
      "inputs": [
        {
          "internalType": "address",
          "name": "operator",
          "type": "address"
        },
        {
          "internalType": "bool",
          "name": "approved",
          "type": "bool"
        }
      ],
      "name": "setApprovalForAll",
      "outputs": [],
      "stateMutability": "nonpayable",
      "type": "function"
    },
    {
      "inputs": [
        {
          "internalType": "bytes4",
          "name": "interfaceId",
          "type": "bytes4"
        }
      ],
      "name": "supportsInterface",
      "outputs": [
        {
          "internalType": "bool",
          "name": "",
          "type": "bool"
        }
      ],
      "stateMutability": "view",
      "type": "function"
    },
    {
      "inputs": [],
      "name": "symbol",
      "outputs": [
        {
          "internalType": "string",
          "name": "",
          "type": "string"
        }
      ],
      "stateMutability": "view",
      "type": "function"
    },
    {
      "inputs": [
        {
          "internalType": "address",
          "name": "from",
          "type": "address"
        },
        {
          "internalType": "address",
          "name": "to",
          "type": "address"
        },
        {
          "internalType": "uint256",
          "name": "tokenId",
          "type": "uint256"
        }
      ],
      "name": "transferFrom",
      "outputs": [],
      "stateMutability": "nonpayable",
      "type": "function"
    },
    {
      "inputs": [
        {
          "internalType": "address",
          "name": "newOwner",
          "type": "address"
        }
      ],
      "name": "transferOwnership",
      "outputs": [],
      "stateMutability": "nonpayable",
      "type": "function"
    },
    {
      "inputs": [
        {
          "internalType": "address",
          "name": "to",
          "type": "address"
        },
        {
          "internalType": "string",
          "name": "metadata",
          "type": "string"
        }
      ],
      "name": "mint",
      "outputs": [],
      "stateMutability": "nonpayable",
      "type": "function"
    },
    {
      "inputs": [
        {
          "internalType": "address",
          "name": "collaborator_",
          "type": "address"
        }
      ],
      "name": "removeCollaborator",
      "outputs": [],
      "stateMutability": "nonpayable",
      "type": "function"
    },
    {
      "inputs": [
        {
          "internalType": "address",
          "name": "collaborator_",
          "type": "address"
        }
      ],
      "name": "addCollaborator",
      "outputs": [],
      "stateMutability": "nonpayable",
      "type": "function"
    },
    {
      "inputs": [
        {
          "internalType": "uint256",
          "name": "tokenId",
          "type": "uint256"
        }
      ],
      "name": "tokenURI",
      "outputs": [
        {
          "internalType": "string",
          "name": "",
          "type": "string"
        }
      ],
      "stateMutability": "view",
      "type": "function"
    },
    {
      "inputs": [
        {
          "internalType": "address",
          "name": "collaborator_",
          "type": "address"
        }
      ],
      "name": "collaborator",
      "outputs": [
        {
          "internalType": "bool",
          "name": "",
          "type": "bool"
        }
      ],
      "stateMutability": "view",
      "type": "function"
    }
  ],
  "bytecode": "0x60806040523480156200001157600080fd5b5060405162001e5938038062001e59833981016040819052620000349162000281565b8151829082906200004d906000906020850190620000f5565b50805162000063906001906020840190620000f5565b50505062000092620000836200009f640100000000026401000000009004565b640100000000620000a3810204565b5050600160075562000341565b3390565b60068054600160a060020a03838116600160a060020a0319831681179093556040519116919082907f8be0079c531659141344cd1fd0a4f28419497f9722a3daafe3b4186f6b6457e090600090a35050565b8280546200010390620002eb565b90600052602060002090601f01602090048101928262000127576000855562000172565b82601f106200014257805160ff191683800117855562000172565b8280016001018555821562000172579182015b828111156200017257825182559160200191906001019062000155565b506200018092915062000184565b5090565b5b8082111562000180576000815560010162000185565b7f4e487b7100000000000000000000000000000000000000000000000000000000600052604160045260246000fd5b600082601f830112620001dc57600080fd5b81516001604060020a0380821115620001f957620001f96200019b565b604051601f8301601f19908116603f011681019082821181831017156200022457620002246200019b565b816040528381526020925086838588010111156200024157600080fd5b600091505b8382101562000265578582018301518183018401529082019062000246565b83821115620002775760008385830101525b9695505050505050565b600080604083850312156200029557600080fd5b82516001604060020a0380821115620002ad57600080fd5b620002bb86838701620001ca565b93506020850151915080821115620002d257600080fd5b50620002e185828601620001ca565b9150509250929050565b6002810460018216806200030057607f821691505b602082108114156200033b577f4e487b7100000000000000000000000000000000000000000000000000000000600052602260045260246000fd5b50919050565b611b0880620003516000396000f3fe608060405234801561001057600080fd5b5060043610610149576000357c0100000000000000000000000000000000000000000000000000000000900480638da5cb5b116100ca578063ccdbe6a61161008e578063ccdbe6a614610292578063d0def521146102a5578063e985e9c5146102b8578063ef0ecea6146102f4578063f2fde38b1461032057600080fd5b80638da5cb5b1461024057806395d89b4114610251578063a22cb46514610259578063b88d4fde1461026c578063c87b56dd1461027f57600080fd5b80633109c19d116101115780633109c19d146101de57806342842e0e146101f15780636352211e1461020457806370a0823114610217578063715018a61461023857600080fd5b806301ffc9a71461014e57806306fdde0314610176578063081812fc1461018b578063095ea7b3146101b657806323b872dd146101cb575b600080fd5b61016161015c3660046115ac565b610333565b60405190151581526020015b60405180910390f35b61017e6103d0565b60405161016d919061161d565b61019e610199366004611630565b610462565b604051600160a060020a03909116815260200161016d565b6101c96101c4366004611665565b610510565b005b6101c96101d936600461168f565b610648565b6101c96101ec3660046116cb565b61067c565b6101c96101ff36600461168f565b61075d565b61019e610212366004611630565b610778565b61022a6102253660046116cb565b610806565b60405190815260200161016d565b6101c96108a3565b600654600160a060020a031661019e565b61017e6108dc565b6101c96102673660046116e6565b6108eb565b6101c961027a3660046117c7565b6109b3565b61017e61028d366004611630565b6109ee565b6101c96102a03660046116cb565b610b1c565b6101c96102b3366004611843565b610c01565b6101616102c63660046118a5565b600160a060020a03918216600090815260056020908152604080832093909416825291909152205460ff1690565b6101616103023660046116cb565b600160a060020a031660009081526009602052604090205460ff1690565b6101c961032e3660046116cb565b610d5f565b6000600160e060020a031982167f80ac58cd0000000000000000000000000000000000000000000000000000000014806103965750600160e060020a031982167f5b5e139f00000000000000000000000000000000000000000000000000000000145b806103ca57507f01ffc9a700000000000000000000000000000000000000000000000000000000600160e060020a03198316145b92915050565b6060600080546103df906118d8565b80601f016020809104026020016040519081016040528092919081815260200182805461040b906118d8565b80156104585780601f1061042d57610100808354040283529160200191610458565b820191906000526020600020905b81548152906001019060200180831161043b57829003601f168201915b5050505050905090565b600081815260026020526040812054600160a060020a03166104f45760405160e560020a62461bcd02815260206004820152602c60248201527f4552433732313a20617070726f76656420717565727920666f72206e6f6e657860448201527f697374656e7420746f6b656e000000000000000000000000000000000000000060648201526084015b60405180910390fd5b50600090815260046020526040902054600160a060020a031690565b600061051b82610778565b905080600160a060020a031683600160a060020a031614156105a85760405160e560020a62461bcd02815260206004820152602160248201527f4552433732313a20617070726f76616c20746f2063757272656e74206f776e6560448201527f720000000000000000000000000000000000000000000000000000000000000060648201526084016104eb565b33600160a060020a03821614806105c457506105c481336102c6565b6106395760405160e560020a62461bcd02815260206004820152603860248201527f4552433732313a20617070726f76652063616c6c6572206973206e6f74206f7760448201527f6e6572206e6f7220617070726f76656420666f7220616c6c000000000000000060648201526084016104eb565b6106438383610e17565b505050565b6106523382610e92565b6106715760405160e560020a62461bcd0281526004016104eb9061192c565b610643838383610f9d565b600654600160a060020a031633146106a95760405160e560020a62461bcd0281526004016104eb90611989565b600160a060020a03811660009081526009602052604090205460ff166107145760405160e560020a62461bcd02815260206004820152601260248201527f6e6f74206120636f6c6c61626f7261746f72000000000000000000000000000060448201526064016104eb565b600160a060020a038116600081815260096020526040808220805460ff19169055517fbc80d602ab43d5a45e0fdbc2b782d70f0a68b97e48526b853885f897d8e04a0d9190a250565b610643838383604051806020016040528060008152506109b3565b600081815260026020526040812054600160a060020a0316806103ca5760405160e560020a62461bcd02815260206004820152602960248201527f4552433732313a206f776e657220717565727920666f72206e6f6e657869737460448201527f656e7420746f6b656e000000000000000000000000000000000000000000000060648201526084016104eb565b6000600160a060020a0382166108875760405160e560020a62461bcd02815260206004820152602a60248201527f4552433732313a2062616c616e636520717565727920666f7220746865207a6560448201527f726f20616464726573730000000000000000000000000000000000000000000060648201526084016104eb565b50600160a060020a031660009081526003602052604090205490565b600654600160a060020a031633146108d05760405160e560020a62461bcd0281526004016104eb90611989565b6108da600061117d565b565b6060600180546103df906118d8565b600160a060020a0382163314156109475760405160e560020a62461bcd02815260206004820152601960248201527f4552433732313a20617070726f766520746f2063616c6c65720000000000000060448201526064016104eb565b336000818152600560209081526040808320600160a060020a03871680855290835292819020805460ff191686151590811790915590519081529192917f17307eab39ab6107e8899845ad3d59bd9653f200f220920489ca2b5937696c31910160405180910390a35050565b6109bd3383610e92565b6109dc5760405160e560020a62461bcd0281526004016104eb9061192c565b6109e8848484846111dc565b50505050565b600081815260026020526040902054606090600160a060020a0316610a7e5760405160e560020a62461bcd02815260206004820152602f60248201527f4552433732314d657461646174613a2055524920717565727920666f72206e6f60448201527f6e6578697374656e7420746f6b656e000000000000000000000000000000000060648201526084016104eb565b60008281526008602052604090208054610a97906118d8565b80601f0160208091040260200160405190810160405280929190818152602001828054610ac3906118d8565b8015610b105780601f10610ae557610100808354040283529160200191610b10565b820191906000526020600020905b815481529060010190602001808311610af357829003601f168201915b50505050509050919050565b600654600160a060020a03163314610b495760405160e560020a62461bcd0281526004016104eb90611989565b600160a060020a03811660009081526009602052604090205460ff1615610bb55760405160e560020a62461bcd02815260206004820152601460248201527f616c726561647920636f6c6c61626f7261746f7200000000000000000000000060448201526064016104eb565b600160a060020a038116600081815260096020526040808220805460ff19166001179055517f2c5b80c99243a299dc0e18bf708c783501be4c4556334fef7b0c9bf2aee9ee919190a250565b3360009081526009602052604090205460ff1680610c295750600654600160a060020a031633145b610c785760405160e560020a62461bcd02815260206004820152601a60248201527f6f6e6c79206f776e6572206f7220636f6c6c61626f7261746f7200000000000060448201526064016104eb565b60026007541415610cce5760405160e560020a62461bcd02815260206004820152601f60248201527f5265656e7472616e637947756172643a207265656e7472616e742063616c6c0060448201526064016104eb565b6002600755600a54610ce1908390611212565b600a5460009081526008602090815260409091208251610d03928401906114fd565b50600a547fa109ba539900bf1b633f956d63c96fc89b814c7287f7aa50a9216d0b5565720782604051610d36919061161d565b60405180910390a26001600a6000828254610d5191906119ed565b909155505060016007555050565b600654600160a060020a03163314610d8c5760405160e560020a62461bcd0281526004016104eb90611989565b600160a060020a038116610e0b5760405160e560020a62461bcd02815260206004820152602660248201527f4f776e61626c653a206e6577206f776e657220697320746865207a65726f206160448201527f646472657373000000000000000000000000000000000000000000000000000060648201526084016104eb565b610e148161117d565b50565b6000818152600460205260409020805473ffffffffffffffffffffffffffffffffffffffff1916600160a060020a0384169081179091558190610e5982610778565b600160a060020a03167f8c5be1e5ebec7d5bd14f71427d1e84f3dd0314c0f7b2291e5b200ac8c7c3b92560405160405180910390a45050565b600081815260026020526040812054600160a060020a0316610f1f5760405160e560020a62461bcd02815260206004820152602c60248201527f4552433732313a206f70657261746f7220717565727920666f72206e6f6e657860448201527f697374656e7420746f6b656e000000000000000000000000000000000000000060648201526084016104eb565b6000610f2a83610778565b905080600160a060020a031684600160a060020a03161480610f65575083600160a060020a0316610f5a84610462565b600160a060020a0316145b80610f955750600160a060020a0380821660009081526005602090815260408083209388168352929052205460ff165b949350505050565b82600160a060020a0316610fb082610778565b600160a060020a03161461102f5760405160e560020a62461bcd02815260206004820152602960248201527f4552433732313a207472616e73666572206f6620746f6b656e2074686174206960448201527f73206e6f74206f776e000000000000000000000000000000000000000000000060648201526084016104eb565b600160a060020a0382166110ad5760405160e560020a62461bcd028152602060048201526024808201527f4552433732313a207472616e7366657220746f20746865207a65726f2061646460448201527f726573730000000000000000000000000000000000000000000000000000000060648201526084016104eb565b6110b8600082610e17565b600160a060020a03831660009081526003602052604081208054600192906110e1908490611a05565b9091555050600160a060020a038216600090815260036020526040812080546001929061110f9084906119ed565b9091555050600081815260026020526040808220805473ffffffffffffffffffffffffffffffffffffffff1916600160a060020a0386811691821790925591518493918716917fddf252ad1be2c89b69c2b068fc378daa952ba7f163c4a11628f55a4df523b3ef91a4505050565b60068054600160a060020a0383811673ffffffffffffffffffffffffffffffffffffffff19831681179093556040519116919082907f8be0079c531659141344cd1fd0a4f28419497f9722a3daafe3b4186f6b6457e090600090a35050565b6111e7848484610f9d565b6111f384848484611230565b6109e85760405160e560020a62461bcd0281526004016104eb90611a1c565b61122c828260405180602001604052806000815250611372565b5050565b6000600160a060020a0384163b15611367576040517f150b7a02000000000000000000000000000000000000000000000000000000008152600160a060020a0385169063150b7a029061128d903390899088908890600401611a79565b602060405180830381600087803b1580156112a757600080fd5b505af19250505080156112d7575060408051601f3d908101601f191682019092526112d491810190611ab5565b60015b611334573d808015611305576040519150601f19603f3d011682016040523d82523d6000602084013e61130a565b606091505b50805161132c5760405160e560020a62461bcd0281526004016104eb90611a1c565b805181602001fd5b600160e060020a0319167f150b7a0200000000000000000000000000000000000000000000000000000000149050610f95565b506001949350505050565b61137c83836113a8565b6113896000848484611230565b6106435760405160e560020a62461bcd0281526004016104eb90611a1c565b600160a060020a0382166114015760405160e560020a62461bcd02815260206004820181905260248201527f4552433732313a206d696e7420746f20746865207a65726f206164647265737360448201526064016104eb565b600081815260026020526040902054600160a060020a0316156114695760405160e560020a62461bcd02815260206004820152601c60248201527f4552433732313a20746f6b656e20616c7265616479206d696e7465640000000060448201526064016104eb565b600160a060020a03821660009081526003602052604081208054600192906114929084906119ed565b9091555050600081815260026020526040808220805473ffffffffffffffffffffffffffffffffffffffff1916600160a060020a03861690811790915590518392907fddf252ad1be2c89b69c2b068fc378daa952ba7f163c4a11628f55a4df523b3ef908290a45050565b828054611509906118d8565b90600052602060002090601f01602090048101928261152b5760008555611571565b82601f1061154457805160ff1916838001178555611571565b82800160010185558215611571579182015b82811115611571578251825591602001919060010190611556565b5061157d929150611581565b5090565b5b8082111561157d5760008155600101611582565b600160e060020a031981168114610e1457600080fd5b6000602082840312156115be57600080fd5b81356115c981611596565b9392505050565b6000815180845260005b818110156115f6576020818501810151868301820152016115da565b81811115611608576000602083870101525b50601f01601f19169290920160200192915050565b6020815260006115c960208301846115d0565b60006020828403121561164257600080fd5b5035919050565b8035600160a060020a038116811461166057600080fd5b919050565b6000806040838503121561167857600080fd5b61168183611649565b946020939093013593505050565b6000806000606084860312156116a457600080fd5b6116ad84611649565b92506116bb60208501611649565b9150604084013590509250925092565b6000602082840312156116dd57600080fd5b6115c982611649565b600080604083850312156116f957600080fd5b61170283611649565b91506020830135801515811461171757600080fd5b809150509250929050565b7f4e487b7100000000000000000000000000000000000000000000000000000000600052604160045260246000fd5b600067ffffffffffffffff8084111561176c5761176c611722565b604051601f8501601f19908116603f0116810190828211818310171561179457611794611722565b816040528093508581528686860111156117ad57600080fd5b858560208301376000602087830101525050509392505050565b600080600080608085870312156117dd57600080fd5b6117e685611649565b93506117f460208601611649565b925060408501359150606085013567ffffffffffffffff81111561181757600080fd5b8501601f8101871361182857600080fd5b61183787823560208401611751565b91505092959194509250565b6000806040838503121561185657600080fd5b61185f83611649565b9150602083013567ffffffffffffffff81111561187b57600080fd5b8301601f8101851361188c57600080fd5b61189b85823560208401611751565b9150509250929050565b600080604083850312156118b857600080fd5b6118c183611649565b91506118cf60208401611649565b90509250929050565b6002810460018216806118ec57607f821691505b60208210811415611926577f4e487b7100000000000000000000000000000000000000000000000000000000600052602260045260246000fd5b50919050565b60208082526031908201527f4552433732313a207472616e736665722063616c6c6572206973206e6f74206f60408201527f776e6572206e6f7220617070726f766564000000000000000000000000000000606082015260800190565b6020808252818101527f4f776e61626c653a2063616c6c6572206973206e6f7420746865206f776e6572604082015260600190565b7f4e487b7100000000000000000000000000000000000000000000000000000000600052601160045260246000fd5b60008219821115611a0057611a006119be565b500190565b600082821015611a1757611a176119be565b500390565b60208082526032908201527f4552433732313a207472616e7366657220746f206e6f6e20455243373231526560408201527f63656976657220696d706c656d656e7465720000000000000000000000000000606082015260800190565b6000600160a060020a03808716835280861660208401525083604083015260806060830152611aab60808301846115d0565b9695505050505050565b600060208284031215611ac757600080fd5b81516115c98161159656fea264697066735822122060d0126d8dc992ee9c8ec204b1600b40571ea7bbc4b8844a8cd15ed031aa624464736f6c63430008090033",
  "immutableReferences": {},
  "source": "// SPDX-License-Identifier: MIT\npragma solidity ^0.8.0;\n\nimport \"@openzeppelin/contracts/token/ERC721/ERC721.sol\";\nimport \"@openzeppelin/contracts/access/Ownable.sol\";\nimport \"@openzeppelin/contracts/security/ReentrancyGuard.sol\";\n\ncontract CustodianERC721 is ERC721, Ownable, ReentrancyGuard {\n    /*\n    Signal OpenSea to mark the token metadata as Frozen\n    However, tested and doesn't work on Ethereum chain\n    Reference: https://docs.opensea.io/docs/metadata-standards\n    */\n    event PermanentURI(string _value, uint256 indexed _id);\n\n    /*\n    Log for new collaborator\n    */\n    event AddCollaborator(address indexed _collaborator);\n\n    /*\n    Log for collaborator being removed\n    */\n    event RemoveCollaborator(address indexed _collaborator);\n\n    /*\n    Mapping token id => token metadata URI\n    Example: ipfs://..., https://..., ar://....\n    */\n    mapping(uint256 => string) private _tokenURI;\n\n    /*\n    Mapping to indicate whether the address is a collaborator\n    */\n    mapping(address => bool) private _collaboratorGranted;\n\n    uint256 private tokenCount;\n\n    constructor(string memory name_, string memory symbol_) ERC721(name_, symbol_) {}\n\n    modifier onlyCollaboratorOrOwner() {\n        require(_collaboratorGranted[_msgSender()] || owner() == _msgSender(), \"only owner or collaborator\");\n        _;\n    }\n\n    function mint(address to, string memory metadata) public onlyCollaboratorOrOwner nonReentrant {\n        _safeMint(to, tokenCount);\n        _tokenURI[tokenCount] = metadata;\n        emit PermanentURI(metadata, tokenCount);\n        tokenCount += 1;\n    }\n\n    function removeCollaborator(address collaborator_) external onlyOwner {\n        require(_collaboratorGranted[collaborator_], \"not a collaborator\");\n        _collaboratorGranted[collaborator_] = false;\n        emit RemoveCollaborator(collaborator_);\n    }\n\n    function addCollaborator(address collaborator_) external onlyOwner {\n        require(!_collaboratorGranted[collaborator_], \"already collaborator\");\n        _collaboratorGranted[collaborator_] = true;\n        emit AddCollaborator(collaborator_);\n    }\n\n    function tokenURI(uint256 tokenId) override public view returns (string memory) {\n        require(_exists(tokenId), \"ERC721Metadata: URI query for nonexistent token\");\n        return _tokenURI[tokenId];\n    }\n\n    function collaborator(address collaborator_) external view returns (bool) {\n        return _collaboratorGranted[collaborator_];\n    }\n\n}",
  "sourcePath": "/home/guantian/Projects/learn-solidity/contracts/CustodianERC721/CustodianERC721.sol",
  "compiler": {
    "name": "solc",
    "version": "0.8.9+commit.e5eed63a.Emscripten.clang"
  },
  "schemaVersion": "3.4.3",
  "updatedAt": "2021-11-16T03:00:29.192Z",
  "devdoc": {
    "kind": "dev",
    "methods": {
      "approve(address,uint256)": {
        "details": "See {IERC721-approve}."
      },
      "balanceOf(address)": {
        "details": "See {IERC721-balanceOf}."
      },
      "getApproved(uint256)": {
        "details": "See {IERC721-getApproved}."
      },
      "isApprovedForAll(address,address)": {
        "details": "See {IERC721-isApprovedForAll}."
      },
      "name()": {
        "details": "See {IERC721Metadata-name}."
      },
      "owner()": {
        "details": "Returns the address of the current owner."
      },
      "ownerOf(uint256)": {
        "details": "See {IERC721-ownerOf}."
      },
      "renounceOwnership()": {
        "details": "Leaves the contract without owner. It will not be possible to call `onlyOwner` functions anymore. Can only be called by the current owner. NOTE: Renouncing ownership will leave the contract without an owner, thereby removing any functionality that is only available to the owner."
      },
      "safeTransferFrom(address,address,uint256)": {
        "details": "See {IERC721-safeTransferFrom}."
      },
      "safeTransferFrom(address,address,uint256,bytes)": {
        "details": "See {IERC721-safeTransferFrom}."
      },
      "setApprovalForAll(address,bool)": {
        "details": "See {IERC721-setApprovalForAll}."
      },
      "supportsInterface(bytes4)": {
        "details": "See {IERC165-supportsInterface}."
      },
      "symbol()": {
        "details": "See {IERC721Metadata-symbol}."
      },
      "tokenURI(uint256)": {
        "details": "See {IERC721Metadata-tokenURI}."
      },
      "transferFrom(address,address,uint256)": {
        "details": "See {IERC721-transferFrom}."
      },
      "transferOwnership(address)": {
        "details": "Transfers ownership of the contract to a new account (`newOwner`). Can only be called by the current owner."
      }
    },
    "version": 1
  },
  "userdoc": {
    "kind": "user",
    "methods": {},
    "version": 1
  }
}